:020000040802F0
:10000000601A0020A10102083F160208B715020875
:100010003D160208AD020208E11A020800000000C5
:10002000000000000000000000000000431602086D
:100030007903020800000000411602084516020874
:10004000BB010208BB010208BB010208BB01020898
:10005000BB010208BB010208BB010208BB01020888
:10006000BB010208BB010208BB010208BB01020878
:10007000B1020208BB010208BD020208BB0102086E
:10008000BB010208BB010208BB010208BB01020858
:10009000BB010208BB010208BB010208BB01020848
:1000A000BB010208BB010208BB010208BB01020838
:1000B000BB010208BB010208BB010208BB01020828
:1000C000BB010208BB010208BB010208BB01020818
:1000D000BB010208BB010208BB010208B11A0208F9
:1000E000BB010208BB010208BB010208BB010208F8
:1000F000BB010208BB010208BB010208BB010208E8
:10010000BB010208BB010208BB010208BB010208D7
:10011000BB010208BB010208BB010208BB010208C7
:10012000BB010208C9020208BB010208BB010208A8
:10013000BB010208BB010208BB010208BB010208A7
:10014000BB010208BB010208BB010208BB01020897
:10015000BB010208BB010208BB010208C91A020860
:10016000BB010208BB010208BB010208BB01020877
:10017000BB010208BB010208BB010208000000002D
:10018000BB010208BB010208DFF810D000F07CF8C8
:10019000004800471D200208AFF30080601A0020CD
:1001A0000648804706480047FEE7FEE7FEE7FEE711
:1001B000FEE7FEE7FEE7FEE7FEE7FEE7E1160208E0
:1001C000890102082DE9F05F0546002092469B4612
:1001D00088460646814640241BE02846414647465D
:1001E000224600F041F853465A46C01A914110D3B6
:1001F00011461846224600F028F82D1A67EB010830
:100200004F4622460120002100F01FF817EB00099D
:100210004E41201EA4F10104DFDC484631462A4647
:100220004346BDE8F09FD2B201E000F8012B491E21
:10023000FBD270470022F6E710B513460A46044683
:100240001946FFF7F0FF204610BD202A04DB203AB4
:1002500000FA02F1002070479140C2F1200320FA19
:1002600003F3194390407047202A04DB203A21FA17
:1002700002F00021704721FA02F3D040C2F12002BF
:100280009140084319467047064C074D06E0E06868
:1002900040F0010394E8070098471034AC42F6D3CD
:1002A000FFF776FF84200208A4200208FEE7000082
:1002B000014800F0BFB800003C060020014800F0F3
:1002C000B9B800009C060020014800F0B3B8000057
:1002D000FC06002001681823CAB2103AB2FBF3F200
:1002E000054B6FF30901032A9B5CC36500D9091D07
:1002F00081650846704700006420020810B5014679
:1003000000208B698A6A4FF0C07453B1B3F5005F67
:1003100015D072B1012A0CD0022A0AD0032A09D1C1
:1003200004E01AB1012A06D0022A03D1C96AC90120
:1003300000D5012010BDC96AA142FAD010BD002A23
:10034000F7D0012AF2D0022AF3D0032AF3D010BD4D
:1003500030B50468256825F480252560046863604D
:100360008368402B036803D099600068C26030BD89
:100370009A600068C16030BD704772B6FEE72DE933
:10038000F0410446876D00F0D1FA064694F8350036
:100390000025022806D08020606584F834500120B2
:1003A000BDE8F0812068016821F016010160206835
:1003B000416921F080014161206C08B9A06C20B135
:1003C0002068016821F0080101602068016821F0BF
:1003D000010101600CE000F0A9FA801B052807D993
:1003E00020206065032084F8350084F83450D7E776
:1003F00020680068C007EED194F85C103F20884068
:10040000B860012084F8350084F834500020C7E734
:1004100090F83510022903D08021416501207047F2
:10042000052180F835100068016821F001010160A4
:10043000002070472DE9F84304464FF00009CDF83D
:10044000009063484FF41651A56D0068B0FBF1F7BA
:100450002E6894F85C10082000FA01F131420FD0A8
:1004600021680A6852070BD50A6822F004020A6064
:1004700094F85C108840A860606D40F001006065F1
:1004800094F85C104FF0010808FA01F0304208D0EF
:1004900021684969090604D5A860606D40F0020032
:1004A000606594F85C1004208840304208D02168D0
:1004B0000968890704D5A860606D40F00400606594
:1004C00094F85C1010208840304218D021680968E8
:1004D000090714D5A86020680168490304D500689D
:1004E000000308D5A16C07E00168C90503D40168C1
:1004F00021F008010160216C09B12046884794F879
:100500005C1020208840304231D021680968C9063B
:100510002DD5A86094F8350005282068016806D01C
:10052000490347D5006800031DD4616C1CE021F02D
:10053000160101602068416921F080014161206C51
:1005400008B9A06C20B12068016821F008010160A1
:1005500094F85C103F208840A86084F8358084F8C7
:100560003490216D1FE0E16B09B120468847606D32
:1005700000282BD0606DC00714D0052084F835000A
:100580002068016821F0010101600098401C009082
:10059000B84203D820680068C007F6D184F83580D7
:1005A00084F83490E16C002910D001B02046BDE8F9
:1005B000F04308470168C905D5D4016821F010014E
:1005C000016084F8358084F83490CCE7BDE8F88386
:1005D0005C0000202DE9F041044600F0A7F9064632
:1005E0005CB1022084F83500002584F8345020687E
:1005F000016821F0010101600DE00120BDE8F081FA
:1006000000F094F9801B052805D92020606503209F
:1006100084F83500F2E720680068C007F0D122684E
:10062000116820480140D4E901031843D4E9033696
:100630003343184363691843A3691843E3691843B4
:10064000236A18430843616A042903D1D4E90B13D0
:1006500019430843106020684069666A20F007016A
:1006600030460E43012704280CD1A06A0643E06AF5
:1006700040B12046FFF742FE20B14020606584F87B
:100680003570BAE7206846612046FFF723FE94F8EC
:100690005C203F2191408160656584F835700020C1
:1006A000ACE700003F8010F02DE9F0410446866D74
:1006B00090F83400002501280DD0012084F8340082
:1006C00094F835700020012F07D084F834000225FB
:1006D0002846BDE8F0810220FBE7022784F8357048
:1006E00060652046FFF734FE94F85C103F20884098
:1006F000B0602068016841F016010160206C20B1F3
:100700002068016841F0080101602068016841F03B
:1007100001010160DCE7000070B5044600F006F955
:100720000546601C02D004480078044400F0FEF83E
:10073000401BA042FAD370BD500000202DE9F84FB5
:10074000DFF8BCA10022012503264FF00F090AF1B2
:10075000040BAAF1040E00BF0B6805FA02F4234053
:10076000A34270D10F7907F00307012F01D0022FA8
:1007700016D187684FEA420806FA08FC27EA0C07F8
:10078000D1F80CC00CFA08FC4CEA070CC0F808C001
:100790004768A7430C79C4F3001494403C43446079
:1007A0000C79E443A4070AD0C4684FEA420C06FA65
:1007B0000CF7BC438F6807FA0CF72743C7600C7926
:1007C00004F00304022C12D1D40800EB840CDCF8F2
:1007D00020405707FF0E09FA07F824EA0804D1F869
:1007E000108008FA07F848EA0408CCF8208004686A
:1007F0004FEA420C06FA0CF7BC430F7907F00307E7
:1008000007FA0CF7274307604C6814F4403F70D098
:100810003C4C276847F480472760246822F0030790
:1008200004F480440094384C07EB040CDCF80848CE
:1008300097074FEA177809FA08F7BC43334FB842D5
:1008400002D1002724E054E0314FB84201D1012702
:100850001EE0304FB84201D1022719E02E4FB842B6
:1008600001D1032714E02D4FB84201D104270FE036
:100870002B4FB84201D105270AE02A4FB84201D1D7
:10088000062705E0284FB84201D1072700E00827D6
:1008900007FA08F72743CCF80878DAF800405746FB
:1008A000D1F804C09C435FEACC2C00D51C433C60CB
:1008B000DBF800405F46D1F804C09C435FEA8C2C13
:1008C00000D51C433C60DEF800407746D1F804C0F8
:1008D0009C435FEA8C3C00D51C433C60084F083FBA
:1008E0003C68D1F804C09C435FEACC3C00D51C4373
:1008F0003C60521C102AFFF42FAFBDE8F88F0000B7
:10090000083C0140443802400030014000000240F1
:100910000004024000080240000C024000100240A7
:100920000014024000180240001C02400148806888
:10093000704700005000002000684AF6AA210160BC
:100940000020704702488168027811448160704736
:10095000500000200B4810B5016841F4007101609F
:10096000016841F480610160016841F480710160B7
:10097000032000F06FF80F2000F006F800F024F8D4
:10098000002010BD003C024070B50D4D04464FF4F0
:100990007A712878B1FBF0F00A490968B1FBF0F0F0
:1009A00000F00CFB48B9102C07D200222146501E43
:1009B00000F030F800206C6070BD012070BD0000B8
:1009C000500000205C0000200A4808B5016841F48E
:1009D00080410160006800F4804000900548001FDD
:1009E000016841F080510160006800F08050009083
:1009F00008BD000044380240002809DB00F01F0257
:100A0000012191404009800000F1E020C0F8001170
:100A100070470000F0B40E4B1B680C46C3F3022372
:100A2000C3F10705042D00D90425191D072901D29A
:100A3000002300E0DB1E012606FA05F1491E2140D5
:100A400099409E40761E16403143F0BC01F05AB8E2
:100A50000CED00E0064900F0070208684FF6FF03BE
:100A6000184040EA0220034A104308607047000023
:100A70000CED00E00000FA052DE9F0470E460500F8
:100A800065D0DFF81481D8F80000F7B200F0070055
:100A9000B04207D288F80070D8F8000000F00700D4
:100AA000B04254D128683D4C810712D5400703D588
:100AB000206840F4E05020602878000703D52068C3
:100AC00040F4604020602068A96820F0F0000843EE
:100AD00020602878C0072DD030496868083901287F
:100AE00012D0022813D0032811D0096889070029E1
:100AF0002DDA216821F0030101432160FFF716FF81
:100B0000814641F2883A0EE009688903EFE70968F7
:100B10008901ECE7FFF70AFFA0EB0901514502D973
:100B20000320BDE8F0872068696800F00C00B0EB96
:100B3000810FEFD1D8F80010404601F00701B14213
:100B400007D90770006800F00700B04201D001200B
:100B5000E7E72878400705D52068E96820F4E050E9
:100B6000084320602878000706D52068296920F40A
:100B7000604040EAC100206000F038F82168084A6F
:100B8000C1F30311515CC84006490860064800687B
:100B9000FFF7FAFE0020C4E7003C0240083802409C
:100BA0006C2002085C000020540000200448054925
:100BB00000680968044AC1F38221515CC84070474B
:100BC0005C000020083802407C20020804480549E7
:100BD00000680968044AC1F34231515CC84070475B
:100BE0005C000020083802407C200208154810B53F
:100BF000006810F00C02144813D01449042A0FD0D6
:100C0000082A0ED10F4C241F2268236802F03F02ED
:100C10005B0207D52068C0F38810A0FB010106E045
:100C2000084610BD2168C1F38811A1FB0001002313
:100C3000FFF7C8FA2168C1F30141491C4900B0FB24
:100C4000F1F010BD083802400024F40040787D0126
:100C50002DE9F84F04006ED02078DFF84C93C007E0
:100C6000A9F104054AD009F104000168C1F381012A
:100C7000012908D00068C0F3810002280AD1D9F800
:100C80000000400206D52868800337D56068002838
:100C9000E1D033E06068B0F5803F10D0B0F5A02F10
:100CA000286810D020F480302860286820F4802044
:100CB00028606068A8B1FFF739FE06460DE0286895
:100CC00040F48030F4E740F480202860F7E700BF6C
:100CD000FFF72CFE801B642873D828688003F7D5A3
:100CE0000CE0FFF723FE064605E000BFFFF71EFEFF
:100CF000801B6428F0D828688003F7D42078DFF8B8
:100D0000AC8280074FF0000A3ED5A748001D01685D
:100D100011F00C0F08D00068C0F3810002280BD13D
:100D2000D9F80000400207D42868800716D5E0688B
:100D3000012800D112E033E1E068B8B10120C8F821
:100D40000000FFF7F3FD064605E000BFFFF7EEFDEC
:100D5000801B0228C0D828688007F7D52868216939
:100D600020F0F80040EAC10028600DE0C8F800A0BB
:100D7000FFF7DCFD064604E0FFF7D8FD801B0228E4
:100D80001FD828688007F7D42078000722D5864F1F
:100D900087486169703771B101210160FFF7C6FDB5
:100DA000064604E0FFF7C2FD801B022809D8386818
:100DB0008007F7D50EE0C0F800A0FFF7B7FD0646A4
:100DC00005E082E0FFF7B2FD801B02287DD838687D
:100DD0008007F7D42078400768D5DFF8CCB100272A
:100DE0000BF13C0BDBF80000C0000BD4DBF800106B
:100DF00041F08051CBF80010DBF80000012700F033
:100E0000805000906B4E3068C00510D4306840F4BC
:100E100080703060FFF78AFD009005E0FFF786FDE7
:100E20000099401A022850D83068C005F6D55E4EA9
:100E3000A0686C3601280FD00528306810D020F04B
:100E400001003060306820F004003060A068B8B164
:100E5000FFF76CFD00900FE0306840F00100F4E710
:100E600040F004003060F7E7FFF760FD0099411A99
:100E700041F28830814266D830688007F4D50EE0B0
:100E8000FFF754FD009007E0FFF750FD0099411A6D
:100E900041F28830814256D830688007F4D42FB1AF
:100EA000DBF8001021F08051CBF80010A069C8B326
:100EB0003D49091D0968C1F3810102294AD0022870
:100EC000504607D0C8F8600000E03CE0FFF72EFD78
:100ED00004463BE04746C8F86000FFF727FD06469A
:100EE00005E000BFFFF722FD801B02282BD82868F1
:100EF0008001F7D4D4E907010843A16A2E4A4908C2
:100F000002EB0141626A41EA8211084394F82C1015
:100F100040EA0161C9F8001001203866FFF706FDBC
:100F2000044606E03EE000BFFFF700FD001B02287C
:100F300009D828688001F7D534E000BFFFF7F6FC38
:100F4000001B022802D90320BDE8F88F2868800121
:100F5000F4D427E00128F7D0D9F80000E26900F4C2
:100F6000800191421CD1226A00F03F01914217D1C9
:100F700047F6C071626A0140B1EB821F10D1A26ACC
:100F80004FF0FF3300F4403103EB5202B1EB024F5C
:100F900006D194F82C1000F07060B0EB016F01D016
:100FA0000120D1E70020CFE704380240000047428B
:100FB000800E4742007000400000FFFF10B5401E49
:100FC000B0F1807F01D3012010BD4FF0E0246061BB
:100FD0000F21601700F096FD0020A061072020611E
:100FE000002010BD704710B504460068406994F8B1
:100FF0003D10C0F3C010212911D180B120681430F8
:1010000050E8001F21F0800140E80012002AF5D1CD
:10101000606B08B1FFF7B3F9204600F00BFC2068C5
:10102000406994F83E10C0F38010222911D180B19C
:101030002068143050E8001F21F0400140E8001201
:10104000002AF5D1A06B08B1FFF799F9204600F00E
:10105000CAFB002010BD7047F8B501680446086857
:10106000CA684B6910F00F0F4FF0000559D003F01C
:10107000010602F49077374365D0C10705D0D1054A
:1010800003D5216C41F001012164410705D5D90741
:1010900003D0216C41F002012164810705D5D907F5
:1010A00003D0216C41F004012164010707D502F04F
:1010B0002001314303D0216C41F008012164216CEF
:1010C00000293AD0800604D5900602D5204600F0CB
:1010D000BFFB20684069216CC0F38010090700D471
:1010E00060B3204600F07FFB20684069400621D5B0
:1010F0002068143050E8001F21F0400140E8001241
:10110000002AF5D1A06BA8B16C490165A06BFFF76F
:101110007FF9002811D0A06B016D01B0BDE8F0404F
:10112000084783060FD593060DD52046BDE8F84045
:1011300000F08EBB2046FFF78EFFF8BD2046FFF77C
:101140008AFF2564F8BD266B2023012E79D1C606BF
:1011500077D5D60675D50868486800904869400676
:1011600040D5A16B086840680004000CEAD0A28D4D
:101170008242E7D9E085C869B0F5807F2DD020682C
:101180000C3050E8001F21F4807140E80012002A62
:10119000F5D12068143050E8001F21F0010140E82B
:1011A0000012002AF5D12068143050E8001F21F009
:1011B000400140E80012002AF5D184F83E30256352
:1011C00020680C3050E8001F21F0100140E80012A8
:1011D000002AF5D1A06BFFF7D2F8A08DE18D401A5F
:1011E00081B229E0A08DE18D401A81B2E08D002806
:1011F000A8D00029A6D020680C3050E8002F22F497
:10120000907240E80026002EF5D12068143050E896
:10121000002F22F0010240E80026002EF5D184F8CC
:101220003E30256320680C3050E8002F22F0100279
:1012300040E80023002BF5D12046FFF7D3FEF8BD90
:10124000FFE705062BD5150629D594F83D00212882
:10125000F5D1A068B0F5805F01D12069B0B1206AF6
:10126000411C2162216800784860E08C401E000427
:10127000000CE084E3D12068C16821F08001C160E6
:101280002068C16841F04001C160D8E7206A008849
:10129000C0F308004860206A801C2062E5E7400631
:1012A000CDD55006CBD5CA68204622F04002CA6090
:1012B00084F83D3000F07EF9C1E70000F116020825
:1012C00070B5040004D094F83D00002510B106E08C
:1012D000012070BD84F83C50204600F023F8242003
:1012E00084F83D002068C16821F40051C1602046A7
:1012F00000F00EFB2068016921F490410161206833
:10130000416921F02A0141612068C16841F400511E
:10131000C1602564202084F83D0084F83E00002050
:1013200070BD00002DE9F04186B0064614216846E4
:10133000FEF780FF5E485D4FD6F800C05C49143868
:101340000222032307250024BC451BD10E6846F06A
:1013500010060E60096801F010010591016841F066
:10136000010101600068694600F001000590580223
:101370008DE81500CDE903354E48FFF7DFF906B0DB
:10138000BDE8F081DFF830814FF48067C44551D16A
:101390004749091FD1F800C04CF4802CC1F800C0A7
:1013A000096801F480210591016841F0080101609C
:1013B0000068694600F0080005904FF440708DE821
:1013C0001500CDE903353D48FFF7B8F93D4D3C48E0
:1013D0004FF000682860C5E90184C5E903476C61E6
:1013E000AC61EC612C6228466C62FFF7F3F808B13F
:1013F000FEF7C3FFB563AE63324D31486035303020
:10140000E5E80208402091C52E4845F814496030AF
:10141000AC61EC612C626C62FFF7DCF808B1FEF79E
:10142000ACFF7563002211462720AE63FFF7F2FA86
:10143000272038E0244DAC45A1D10D6845F02005AA
:101440000D60096801F020010591016841F0040177
:1014500001600068694600F004000590C0208DE836
:1014600015000820CDE903301848FFF767F9154D3E
:101470001748C03528608005C5E90104C5E9034760
:101480006C61AC61EC612C6228466C62FFF7A2F8DB
:1014900008B1FEF772FFB563002211464720AE6324
:1014A000FFF7B8FA4720FFF7A7FA68E700100140F6
:1014B000443802400000024000480040000C024056
:1014C000286002403C060020001401400008024051
:1014D0002864024090F83E30202B0ED159B152B111
:1014E00090F83C30012B08D0012380F83C300023D9
:1014F000036300F093BA01207047022070477047E1
:10150000704700002DE9F84305460068244901268C
:101510000027244C4FF48068884213D10168C90623
:101520003CD50168406800902846FFF75CFDA86B39
:1015300000684068C0F58060606081B2267004F188
:101540001C0026E01849884228D10168C90625D523
:101550000168406800902846FFF745FD1348667013
:1015600000780128A86B006840680CD0A0F2013018
:101570000F494042A0600F5440F201322846BDE8B6
:10158000F843FFF7A7BFC0F5806081B2A0600548AF
:101590002C3000F037FC01464246EFE7BDE8F88307
:1015A0000014014000000020004800404D000020D1
:1015B0005C0700207047FEE7114808B5016841F05C
:1015C00080010160016801F080010091016841F033
:1015D00004010160016801F004010091016841F01B
:1015E00001010160016801F001010091016841F011
:1015F00008010160006800F00800009008BD0000CC
:10160000303802400C4810B50A4901604FF4E1310E
:101610004160002181600C22C160C0E90412816137
:10162000C161FFF74DFE002803D0BDE81040FEF772
:10163000A4BE10BD0010014070050020FEE7FEE7CB
:1016400070477047FFF77EB930B593B030216846D8
:10165000FEF7F0FD14210CA8FEF7ECFD1E48002556
:10166000016841F080510160006800F080501190E5
:101670001A48016841F4804101600068022400F4C6
:101680008040119001200090000401908001CDE97C
:101690000640192008904FF4A870CDE909040420F1
:1016A0000B906846FFF7D4FA08B172B6FEE70CA9B2
:1016B0000F2081E831004FF4A0500F904FF480507C
:1016C000109005210CA8FFF7D7F9002801D072B6B9
:1016D000FEE713B030BD000040380240007000400B
:1016E0000248016841F470010160704788ED00E034
:1016F00010B5806B0021C185C184FFF7ACFC10BD23
:1017000070B5846B2068406994F83D10C0F3C01038
:101710000025212904D118B1E584204600F08AF87B
:101720002068406994F83E10C0F38010222904D14B
:1017300018B1E585204600F056F8206C40F0100006
:1017400020642046FFF787FC70BD10B50146806B12
:1017500009680968C9052FD40021C18501680C31C9
:1017600051E8002F22F4807241E80023002BF5D1CC
:101770000168143151E8002F22F0010241E80023F2
:10178000002BF5D10168143151E8002F22F04002FE
:1017900041E80023002BF5D1202180F83E10016B99
:1017A000012909D101680C3151E8002F22F0100203
:1017B00041E80023002BF5D1016B012902D0FFF78E
:1017C0009EFE10BD818DFFF70DFC10BD10B5806B26
:1017D000016B012902D0FFF793FE10BD818D4908EE
:1017E000FFF700FC10BD01680C3151E8002F22F416
:1017F000907241E80023002BF5D10168143151E8C3
:10180000002F22F0010241E80023002BF5D1016BEB
:10181000012909D101680C3151E8002F22F0100292
:1018200041E80023002BF5D1202180F83E10002153
:101830000163704701680C3151E8002F22F0C002AB
:1018400041E80023002BF5D1202180F83D1070479E
:1018500008B590F83E10222901D0022008BD826808
:101860004FF480539A4201D1016921B1816A9A42B1
:101870001BD04AB10AE00268816A5268C2F30802CA
:101880000A80816A891C08E0026972B102685268A4
:1018900002F07F020A70816A491C8162C18D491E73
:1018A0000904090CC18503D019E002685268F1E708
:1018B0000168CA6822F02002CA600168CA6822F47E
:1018C0008072CA6001684A6922F001024A612021DF
:1018D00080F83E10016B012903D0FFF710FE0020B5
:1018E00008BD0021016301680C3151E8002F22F08E
:1018F000100241E80023002BF5D101680A68D206E6
:1019000002D50A6849680091818DFFF76BFBE6E715
:1019100070B5044600680169E26821F44051114342
:1019200001612169A068E2690843616911430843C4
:101930002168CA6849F20C639A430243CA6020686E
:101940004169A26921F44071114341613149206824
:10195000884202D03049884202D1FFF737F901E0CE
:10196000FFF724F9E2690023192164253226B2F534
:10197000004F626828D0A0FB0101930F9200FEF790
:1019800021FC0146B0FBF5F06FF01802504301EB6B
:10199000800006EB0010B0FBF5F000F0F002B1FBA8
:1019A000F5F002EB0012B1FBF5F06FF018035843AD
:1019B00001EB800006EB0010B0FBF5F000F00F002B
:1019C00021681044886070BDA0FB010192185B4142
:1019D000FEF7F8FB0146B0FBF5F00201B1FBF5F0B4
:1019E0006FF01803584301EB800006EBC000B0FB1A
:1019F000F5F000F0F80002EB4002B1FBF5F05843BF
:101A000001EB800006EBC000B0FBF5F000F0070032
:101A1000D6E70000001001400014014038B5816293
:101A200082850025134604460564222084F83E0082
:101A3000A26B1C48D063A26B1B481064A26B1B48AE
:101A4000D064A06B0A4605652168A06B091DFEF7EE
:101A50002BFE206801684068009084F83C502069A3
:101A600048B120680C3050E8001F41F4807140E814
:101A70000012002AF5D12068143050E8001F41F010
:101A8000010140E80012002AF5D12068143050E826
:101A9000001F41F0400140E80012002AF5D100206B
:101AA00038BD00004B170208CD17020801170208C5
:101AB00010B50448FFF7D0FABDE810400148FFF721
:101AC00021BD0000B405002010B50448FFF7C4FA9A
:101AD000BDE810400148FFF715BD0000F8050020E3
:101AE000FEE700000FB4054B10B503A9044A0298A5
:101AF00000F028F810BC5DF814FB00000D2002086F
:101B0000600000200907090E002804DB00F1E02036
:101B100080F80014704700F00F0000F1E02080F81A
:101B2000141D704702E008C8121F08C1002AFAD12C
:101B300070477047002001E001C1121F002AFBD14D
:101B4000704700002DE9FF4F8DB09B460F460446BD
:101B5000002606E025280BD05A460F999047641CB2
:101B6000761C20780028F5D111B03046BDE8F08F02
:101B70000025A8460122984900E0054314F8013FDA
:101B8000203B02FA03F00842F7D120782E2817D123
:101B900014F8010F45F004052A280ED06FF02F022B
:101BA0002078A0F1300109290AD808EB880102EB5E
:101BB000410100EB0108641CF2E757F8048B641C38
:101BC00020786C280DD004DC4C2812D06A2811D162
:101BD00004E074280DD07A280CD10AE045F40015F1
:101BE00007E0617845F48015814202D1641C05F557
:101BF0008015641C2078692844D008DC0028B3D004
:101C0000582867D063280FD0642808D13AE070289C
:101C100065D0732812D075285AD078285AD05A46E1
:101C20000F999047761CD5E017F8040B8DF800004B
:101C300000208DF80100E946012003E057F8049BDD
:101C40004FF0FF3069074FF0000501D40AE06D1C2A
:101C500045450DDA8542FADB19F805100029F6D161
:101C600006E06D1C8542FCDB19F805100029F8D14F
:101C70002E4404E019F8010B5A460F9990476D1E47
:101C8000F8D2A7E00A200021CDE90801C5F30250EF
:101C900002280CD001CFC117021E71F100020CDA2C
:101CA0000023D0EB030063EB01012D2208E0FF1DB0
:101CB00027F00707F7E80201EEE72A0504D52B22F3
:101CC0008DF8282001223CE0EA073AD02022F7E7ED
:101CD0000A2000E010200021CDE9080107E01020D3
:101CE000002145F00405CDE908014FF00808C5F3CF
:101CF0000250022810D001CF00214FF0000A2A071D
:101D000020D52278702A0DD0DDE908C38CF0100CA4
:101D10005CEA030C0CD015E0FF1D27F00707F7E87D
:101D20000201EAE740228DF828204FF0010A0CE07A
:101D300050EA010306D030238DF828308DF8292091
:101D4000022292462278582A04D024A20DF12009BA
:101D50000B9209E026A2F9E7DDE90823FEF732FA43
:101D60000B9B9B5C09F8013D50EA0102F4D1ADEBFD
:101D7000090020300890680701D44FF00108089945
:101D8000884503DD0898A8EB000000E000208046AD
:101D9000002506E00AA85A46405D0F9990476D1C41
:101DA000761C5545F6DB04E030205A460F999047E3
:101DB000761CB8F10001A8F10108F5DC05E019F87E
:101DC000010B5A460F999047761C0899481E0890B7
:101DD0000029F4DC641CC4E60928010030313233E8
:101DE0003435363738396162636465660000000057
:101DF0003031323334353637383941424344454641
:101E0000000000002DE9F0410446C0680E4600289D
:101E100040D02B4F00253878002840D0E0882D1F77
:101E2000002844D0216805EB80000D5AE0688088C6
:101E3000401B862800DA0025294622A0FFF752FE23
:101E4000A81986B2E1882068022220F82160E18882
:101E5000206802EB81014552314625A0FFF742FE82
:101E600029462EA0FFF73EFEE088401C80B2E080AD
:101E7000A188884204D334A0FFF734FE0020E0801C
:101E8000E0688188891B862900DA002600683044D2
:101E9000BDE8F08138A0FFF725FE0020F8E73EA05E
:101EA000FFF720FE002EC1D001203870BEE747A00A
:101EB000FFF718FEA188206805EB8101455AB5E7B8
:101EC0004C0000205B636972636C655F6275665FDE
:101ED00061646A7573745D203A206F6C645F72652B
:101EE00063765F68656164203D2025640D0A00000B
:101EF0005B636972636C655F6275665F61646A7576
:101F000073745D203A20746869735F726563765FED
:101F100068656164203D2025640D0A005B63697279
:101F2000636C655F6275665F61646A7573745D207A
:101F30003A20746869735F726563765F7461696C77
:101F4000203D2025640D0A005B636972636C655F48
:101F50006275665F61646A7573745D203A205061D2
:101F6000636B657420686561642072657475726E58
:101F700020746F20300D0A005B636972636C655FCB
:101F80006275665F61646A7573745D203A204552BC
:101F9000524F520D0A0000005B636972636C655F0B
:101FA0006275665F61646A7573745D203A20696664
:101FB0002830203D3D2073746172745F666C6167E8
:101FC00029207061737365640D0A00005B63697298
:101FD000636C655F6275665F61646A7573745D20CA
:101FE0003A2069662830203D3D207061636B65743E
:101FF0005F636972636C655F6275662E68656164B4
:1020000029207061737365640D0A000002494860FD
:102010000A685206FCD57047001001400C490B4875
:102020000860FEF797FCFFF70FFBFFF7C5FAFFF715
:10203000E9FA4FF47A7407A0FFF754FD0848FEF759
:102040007BFC2046FEF768FBF5E700000000020875
:1020500008ED00E048656C6C6F20312E310D0A00F0
:102060006400002000061016000610160000000094
:102070000000000001020304060708090000000038
:1020800001020304A42002080000002064000000F4
:10209000241B02080821020864000020FC1900002B
:1020A000341B0208000000000000000000000000D7
:1020B000700000200002000000000000000000008E
:1020C0007002002020000000000000000C00002032
:1020D000F004002020000000000000003C00002070
:1020E000F0020020000200000000000000000000DC
:1020F00000000000010000001000000000000000CF
:082100000024F40000000000BF
:040000050802018963
:00000001FF
